{
  "contractName": "Identity",
  "abi": [
    {
      "anonymous": false,
      "inputs": [
        {
          "indexed": false,
          "internalType": "address",
          "name": "userAddress",
          "type": "address"
        },
        {
          "indexed": false,
          "internalType": "string",
          "name": "did",
          "type": "string"
        }
      ],
      "name": "UserRegistered",
      "type": "event"
    },
    {
      "inputs": [
        {
          "internalType": "string",
          "name": "",
          "type": "string"
        }
      ],
      "name": "didToAddress",
      "outputs": [
        {
          "internalType": "address",
          "name": "",
          "type": "address"
        }
      ],
      "stateMutability": "view",
      "type": "function"
    },
    {
      "inputs": [
        {
          "internalType": "address",
          "name": "",
          "type": "address"
        }
      ],
      "name": "users",
      "outputs": [
        {
          "internalType": "string",
          "name": "name",
          "type": "string"
        },
        {
          "internalType": "string",
          "name": "email",
          "type": "string"
        },
        {
          "internalType": "string",
          "name": "did",
          "type": "string"
        }
      ],
      "stateMutability": "view",
      "type": "function"
    },
    {
      "inputs": [
        {
          "internalType": "string",
          "name": "_name",
          "type": "string"
        },
        {
          "internalType": "string",
          "name": "_email",
          "type": "string"
        },
        {
          "internalType": "string",
          "name": "_did",
          "type": "string"
        }
      ],
      "name": "register",
      "outputs": [],
      "stateMutability": "nonpayable",
      "type": "function"
    },
    {
      "inputs": [
        {
          "internalType": "address",
          "name": "_userAddress",
          "type": "address"
        }
      ],
      "name": "getUser",
      "outputs": [
        {
          "internalType": "string",
          "name": "name",
          "type": "string"
        },
        {
          "internalType": "string",
          "name": "email",
          "type": "string"
        },
        {
          "internalType": "string",
          "name": "did",
          "type": "string"
        }
      ],
      "stateMutability": "view",
      "type": "function"
    },
    {
      "inputs": [
        {
          "internalType": "string",
          "name": "_did",
          "type": "string"
        }
      ],
      "name": "getUserByDID",
      "outputs": [
        {
          "internalType": "address",
          "name": "userAddress",
          "type": "address"
        },
        {
          "internalType": "string",
          "name": "name",
          "type": "string"
        },
        {
          "internalType": "string",
          "name": "email",
          "type": "string"
        },
        {
          "internalType": "string",
          "name": "did",
          "type": "string"
        }
      ],
      "stateMutability": "view",
      "type": "function"
    }
  ],
  "bytecode": "0x608060405234801561001057600080fd5b506110b4806100206000396000f3fe608060405234801561001057600080fd5b50600436106100575760003560e01c8063062839db1461005c5780634cd08d031461008f5780636ba1f4a4146100ab5780636f77926b146100db578063a87430ba1461010d575b600080fd5b61007660048036038101906100719190610bb1565b61013f565b6040516100869493929190610de4565b60405180910390f35b6100a960048036038101906100a49190610bf2565b6103ad565b005b6100c560048036038101906100c09190610bb1565b610638565b6040516100d29190610d99565b60405180910390f35b6100f560048036038101906100f09190610b88565b610681565b60405161010493929190610e3e565b60405180910390f35b61012760048036038101906101229190610b88565b6108a6565b60405161013693929190610e3e565b60405180910390f35b6000606080606060006001866040516101589190610d82565b908152602001604051809103902060009054906101000a900473ffffffffffffffffffffffffffffffffffffffff16905060008060008373ffffffffffffffffffffffffffffffffffffffff1673ffffffffffffffffffffffffffffffffffffffff1681526020019081526020016000206040518060600160405290816000820180546101e490610fc6565b80601f016020809104026020016040519081016040528092919081815260200182805461021090610fc6565b801561025d5780601f106102325761010080835404028352916020019161025d565b820191906000526020600020905b81548152906001019060200180831161024057829003601f168201915b5050505050815260200160018201805461027690610fc6565b80601f01602080910402602001604051908101604052809291908181526020018280546102a290610fc6565b80156102ef5780601f106102c4576101008083540402835291602001916102ef565b820191906000526020600020905b8154815290600101906020018083116102d257829003601f168201915b5050505050815260200160028201805461030890610fc6565b80601f016020809104026020016040519081016040528092919081815260200182805461033490610fc6565b80156103815780601f1061035657610100808354040283529160200191610381565b820191906000526020600020905b81548152906001019060200180831161036457829003601f168201915b505050505081525050905081816000015182602001518360400151955095509550955050509193509193565b60008060003373ffffffffffffffffffffffffffffffffffffffff1673ffffffffffffffffffffffffffffffffffffffff16815260200190815260200160002060000180546103fb90610fc6565b90501461043d576040517f08c379a000000000000000000000000000000000000000000000000000000000815260040161043490610eaa565b60405180910390fd5b600073ffffffffffffffffffffffffffffffffffffffff166001826040516104659190610d82565b908152602001604051809103902060009054906101000a900473ffffffffffffffffffffffffffffffffffffffff1673ffffffffffffffffffffffffffffffffffffffff16146104ea576040517f08c379a00000000000000000000000000000000000000000000000000000000081526004016104e190610e8a565b60405180910390fd5b6040518060600160405280848152602001838152602001828152506000803373ffffffffffffffffffffffffffffffffffffffff1673ffffffffffffffffffffffffffffffffffffffff168152602001908152602001600020600082015181600001908051906020019061055f929190610a68565b50602082015181600101908051906020019061057c929190610a68565b506040820151816002019080519060200190610599929190610a68565b50905050336001826040516105ae9190610d82565b908152602001604051809103902060006101000a81548173ffffffffffffffffffffffffffffffffffffffff021916908373ffffffffffffffffffffffffffffffffffffffff1602179055507f48cac28ad4dc618e15f4c2dd5e97751182f166de97b25618318b2112aa951a2f338260405161062b929190610db4565b60405180910390a1505050565b6001818051602081018201805184825260208301602085012081835280955050505050506000915054906101000a900473ffffffffffffffffffffffffffffffffffffffff1681565b606080606060008060008673ffffffffffffffffffffffffffffffffffffffff1673ffffffffffffffffffffffffffffffffffffffff1681526020019081526020016000206040518060600160405290816000820180546106e190610fc6565b80601f016020809104026020016040519081016040528092919081815260200182805461070d90610fc6565b801561075a5780601f1061072f5761010080835404028352916020019161075a565b820191906000526020600020905b81548152906001019060200180831161073d57829003601f168201915b5050505050815260200160018201805461077390610fc6565b80601f016020809104026020016040519081016040528092919081815260200182805461079f90610fc6565b80156107ec5780601f106107c1576101008083540402835291602001916107ec565b820191906000526020600020905b8154815290600101906020018083116107cf57829003601f168201915b5050505050815260200160028201805461080590610fc6565b80601f016020809104026020016040519081016040528092919081815260200182805461083190610fc6565b801561087e5780601f106108535761010080835404028352916020019161087e565b820191906000526020600020905b81548152906001019060200180831161086157829003601f168201915b5050505050815250509050806000015181602001518260400151935093509350509193909250565b60006020528060005260406000206000915090508060000180546108c990610fc6565b80601f01602080910402602001604051908101604052809291908181526020018280546108f590610fc6565b80156109425780601f1061091757610100808354040283529160200191610942565b820191906000526020600020905b81548152906001019060200180831161092557829003601f168201915b50505050509080600101805461095790610fc6565b80601f016020809104026020016040519081016040528092919081815260200182805461098390610fc6565b80156109d05780601f106109a5576101008083540402835291602001916109d0565b820191906000526020600020905b8154815290600101906020018083116109b357829003601f168201915b5050505050908060020180546109e590610fc6565b80601f0160208091040260200160405190810160405280929190818152602001828054610a1190610fc6565b8015610a5e5780601f10610a3357610100808354040283529160200191610a5e565b820191906000526020600020905b815481529060010190602001808311610a4157829003601f168201915b5050505050905083565b828054610a7490610fc6565b90600052602060002090601f016020900481019282610a965760008555610add565b82601f10610aaf57805160ff1916838001178555610add565b82800160010185558215610add579182015b82811115610adc578251825591602001919060010190610ac1565b5b509050610aea9190610aee565b5090565b5b80821115610b07576000816000905550600101610aef565b5090565b6000610b1e610b1984610efb565b610eca565b905082815260208101848484011115610b3657600080fd5b610b41848285610f84565b509392505050565b600081359050610b5881611067565b92915050565b600082601f830112610b6f57600080fd5b8135610b7f848260208601610b0b565b91505092915050565b600060208284031215610b9a57600080fd5b6000610ba884828501610b49565b91505092915050565b600060208284031215610bc357600080fd5b600082013567ffffffffffffffff811115610bdd57600080fd5b610be984828501610b5e565b91505092915050565b600080600060608486031215610c0757600080fd5b600084013567ffffffffffffffff811115610c2157600080fd5b610c2d86828701610b5e565b935050602084013567ffffffffffffffff811115610c4a57600080fd5b610c5686828701610b5e565b925050604084013567ffffffffffffffff811115610c7357600080fd5b610c7f86828701610b5e565b9150509250925092565b610c9281610f52565b82525050565b6000610ca382610f2b565b610cad8185610f36565b9350610cbd818560208601610f93565b610cc681611056565b840191505092915050565b6000610cdc82610f2b565b610ce68185610f47565b9350610cf6818560208601610f93565b80840191505092915050565b6000610d0f601683610f36565b91507f44494420616c72656164792072656769737465726564000000000000000000006000830152602082019050919050565b6000610d4f601783610f36565b91507f5573657220616c726561647920726567697374657265640000000000000000006000830152602082019050919050565b6000610d8e8284610cd1565b915081905092915050565b6000602082019050610dae6000830184610c89565b92915050565b6000604082019050610dc96000830185610c89565b8181036020830152610ddb8184610c98565b90509392505050565b6000608082019050610df96000830187610c89565b8181036020830152610e0b8186610c98565b90508181036040830152610e1f8185610c98565b90508181036060830152610e338184610c98565b905095945050505050565b60006060820190508181036000830152610e588186610c98565b90508181036020830152610e6c8185610c98565b90508181036040830152610e808184610c98565b9050949350505050565b60006020820190508181036000830152610ea381610d02565b9050919050565b60006020820190508181036000830152610ec381610d42565b9050919050565b6000604051905081810181811067ffffffffffffffff82111715610ef157610ef0611027565b5b8060405250919050565b600067ffffffffffffffff821115610f1657610f15611027565b5b601f19601f8301169050602081019050919050565b600081519050919050565b600082825260208201905092915050565b600081905092915050565b6000610f5d82610f64565b9050919050565b600073ffffffffffffffffffffffffffffffffffffffff82169050919050565b82818337600083830152505050565b60005b83811015610fb1578082015181840152602081019050610f96565b83811115610fc0576000848401525b50505050565b60006002820490506001821680610fde57607f821691505b60208210811415610ff257610ff1610ff8565b5b50919050565b7f4e487b7100000000000000000000000000000000000000000000000000000000600052602260045260246000fd5b7f4e487b7100000000000000000000000000000000000000000000000000000000600052604160045260246000fd5b6000601f19601f8301169050919050565b61107081610f52565b811461107b57600080fd5b5056fea26469706673582212204b5caea6542a344e398c8fabdb300f6f3742ec7b4065078d355527498ef6062d64736f6c63430008000033",
  "immutableReferences": {},
  "source": "// SPDX-License-Identifier: MIT\r\npragma solidity ^0.8.0;\r\n\r\ncontract Identity {\r\n    struct User {\r\n        string name;\r\n        string email;\r\n        string did;\r\n    }\r\n\r\n    mapping(address => User) public users;\r\n    mapping(string => address) public didToAddress;\r\n\r\n    event UserRegistered(address userAddress, string did);\r\n\r\n    function register(string memory _name, string memory _email, string memory _did) public {\r\n        require(bytes(users[msg.sender].name).length == 0, \"User already registered\");\r\n        require(didToAddress[_did] == address(0), \"DID already registered\");\r\n        users[msg.sender] = User(_name, _email, _did);\r\n        didToAddress[_did] = msg.sender;\r\n        emit UserRegistered(msg.sender, _did);\r\n    }\r\n\r\n    function getUser(address _userAddress) public view returns (string memory name, string memory email, string memory did) {\r\n        User memory user = users[_userAddress];\r\n        return (user.name, user.email, user.did);\r\n    }\r\n\r\n    function getUserByDID(string memory _did) public view returns (address userAddress, string memory name, string memory email, string memory did) {\r\n        address userAddr = didToAddress[_did];\r\n        User memory user = users[userAddr];\r\n        return (userAddr, user.name, user.email, user.did);\r\n    }\r\n}\r\n",
  "sourcePath": "C:\\Users\\nares\\OneDrive\\Desktop\\New folder (2)\\contracts\\Identity.sol",
  "compiler": {
    "name": "solc",
    "version": "0.8.0+commit.c7dfd78e.Emscripten.clang"
  },
  "schemaVersion": "3.4.16",
  "updatedAt": "2024-07-14T04:23:38.718Z",
  "devdoc": {
    "kind": "dev",
    "methods": {},
    "version": 1
  },
  "userdoc": {
    "kind": "user",
    "methods": {},
    "version": 1
  }
}